:100000000C9434000C943E000C943E000C943E0082
:100010000C943E000C943E000C943E000C943E0068
:100020000C943E000C943E000C943E000C943E0058
:100030000C943E000C943E000C943E000C943E0048
:100040000C943E000C943E000C943E000C943E0038
:100050000C943E000C943E000C943E000C943E0028
:100060000C943E000C943E0011241FBECFEFD8E04C
:10007000DEBFCDBF0E9473000C948C000C94000076
:1000800085E58BB92FE986E891E0215080409040CA
:10009000E1F700C000008AEA8BB92FE986E891E019
:1000A000215080409040E1F700C0000008958BB1DE
:1000B000803849F08BB1853541F08BB18A3A39F0FF
:1000C0008BB1880F05C081E003C081E001C081E0F1
:1000D0008BB92FE986E891E0215080409040E1F70C
:1000E00000C0000008958AB18FEF8AB9C0E001C056
:1000F000C0E0309B03C03099FECFCF5FC13031F0FC
:1001000018F0C23031F0F4CF1BB8F3CF0E9440009A
:0C011000F0CF0E945700EDCFF894FFCF15
:00000001FF
