:100000000C9434000C9451000C9451000C94510049
:100010000C9451000C9451000C9451000C9451001C
:100020000C9451000C9451000C9451000C9451000C
:100030000C9451000C9451000C9451000C945100FC
:100040000C9451000C9451000C9451000C945100EC
:100050000C9451000C9451000C9451000C945100DC
:100060000C9451000C94510011241FBECFEFD8E026
:10007000DEBFCDBF11E0A0E0B1E0E2E8F3E002C0F6
:1000800005900D92A630B107D9F721E0A6E0B1E0C6
:1000900001C01D92AA30B207E1F70E946D000C94D6
:1000A000BF010C9400001BB8089585E58BB98AEA5E
:1000B0008BB908958BB1803849F08BB1853541F00B
:1000C0008BB18A3A39F08BB1880F05C081E003C04B
:1000D00081E001C081E08BB9089584E090E00E9446
:1000E0009E00EC0184E090E00E949E008C0184E080
:1000F00090E00E949E0023E530E0398328831B8333
:100100000A8325E530E0F8013183208393838283DD
:100110002AE530E0FC0131832083D383C2838AB196
:100120008FEF8AB93898E881F9810995309BFBCF28
:100130003099FECF0A80DB81C02DF5CF0F931F933E
:10014000CF93DF938230910510F482E090E0E0914C
:100150000801F091090120E030E0A0E0B0E0309724
:1001600019F1408151810281138148175907C8F064
:100170008417950769F4109731F012960C93129733
:1001800013961C9327C0009308011093090122C005
:100190002115310519F04217530718F49A01BD01D2
:1001A000EF01DF01F801DBCF21153105F9F0281B44
:1001B000390B2430310580F48A819B8161157105EA
:1001C00021F0FB019383828304C090930901809303
:1001D0000801FE01329644C0FE01E20FF31F819335
:1001E000919322503109398328833AC02091060126
:1001F00030910701232B41F420910201309103013A
:1002000030930701209306012091000130910101F4
:100210002115310541F42DB73EB7409104015091AD
:100220000501241B350BE0910601F0910701E2174F
:10023000F307A0F42E1B3F0B2817390778F0AC0109
:100240004E5F5F4F2417350748F04E0F5F1F5093E6
:100250000701409306018193919302C0E0E0F0E032
:10026000CF01DF91CF911F910F910895CF93DF932D
:10027000009709F481C0FC01329713821282A09189
:100280000801B0910901109781F420813181820F1A
:10029000931F20910601309107012817390751F566
:1002A000F0930701E093060167C0ED0120E030E024
:1002B000CE17DF0740F44A815B819E01411551054D
:1002C000F1F0EA01F5CFD383C28340815181840FDD
:1002D000951FC817D90759F488819981840F951FF4
:1002E0000296918380838A819B81938382832115E7
:1002F000310529F4F0930901E09308013DC0E901BB
:10030000FB83EA8349915991C40FD51FEC17FD0770
:1003100061F480819181840F951F0296E901998390
:100320008883828193819B838A83E0E0F0E0129648
:100330008D919C911397009719F0FD01DC01F7CF87
:100340008D919C9111979D012E5F3F4F820F931FBE
:1003500020910601309107012817390769F4309779
:1003600029F4109209011092080102C0138212822E
:10037000B0930701A0930601DF91CF910895F894FF
:02038000FFCFAD
:0603820000000A0120004A
:00000001FF
